:020000040800F2
:10000000000002204D0D0008011300080F13000826
:10001000151300081B13000821130008000000003E
:10002000000000000000000000000000271300088E
:1000300035130008000000004313000851130008A6
:100040009D0D00089D0D00089D0D00089D0D0008E8
:100050009D0D00089D0D00089D0D00089D0D0008D8
:100060009D0D00089D0D00089D0D00089D0D0008C8
:100070009D0D00089D0D00089D0D00089D0D0008B8
:100080009D0D00089D0D0008611300089D0D0008DE
:100090009D0D00089D0D00089D0D00089D0D000898
:1000A0009D0D0008991300089D0D00089D0D000886
:1000B0009D0D00089D0D00089D0D00089D0D000878
:1000C0009D0D00089D0D00089D0D00089D0D000868
:1000D0009D0D00089D0D00089D0D00089D0D000858
:1000E0009D0D00089D0D00089D0D00089D0D000848
:1000F0009D0D00089D0D00089D0D00089D0D000838
:100100009D0D00089D0D00089D0D00089D0D000827
:100110009D0D00089D0D00089D0D00089D0D000817
:100120009D0D00089D0D00089D0D00089D0D000807
:100130009D0D00089D0D00089D0D00089D0D0008F7
:100140009D0D00089D0D00089D0D00089D0D0008E7
:100150009D0D00089D0D00089D0D00089D0D0008D7
:100160009D0D00089D0D00089D0D00089D0D0008C7
:100170009D0D00089D0D00089D0D00080000000069
:080180009D0D00089D0D000813
:1001880010B5054C237833B9044B13B10448AFF3C9
:1001980000800123237010BD1C0000200000000017
:1001A8001046000808B5034B1BB103490348AFF3D9
:1001B800008008BD00000000200000201046000854
:1001C80081F0004102E000BF83F0004330B54FEA00
:1001D80041044FEA430594EA050F08BF90EA020F6D
:1001E8001FBF54EA000C55EA020C7FEA645C7FEA00
:1001F800655C00F0E2804FEA5454D4EB5555B8BF23
:100208006D420CDD2C4480EA020281EA030382EA93
:10021800000083EA010180EA020281EA0303362D25
:1002280088BF30BD11F0004F4FEA01314FF4801CF8
:100238004CEA113102D0404261EB410113F0004F0A
:100248004FEA03334CEA133302D0524263EB4303C1
:1002580094EA050F00F0A780A4F10104D5F1200E5F
:100268000DDB02FA0EFC22FA05F2801841F10001BA
:1002780003FA0EF2801843FA05F359410EE0A5F18E
:1002880020050EF1200E012A03FA0EFC28BF4CF0BF
:10029800020C43FA05F3C01851EBE37101F0004575
:1002A80007D54FF0000EDCF1000C7EEB00006EEB82
:1002B8000101B1F5801F1BD3B1F5001F0CD349080C
:1002C8005FEA30004FEA3C0C04F101044FEA445263
:1002D80012F5800F80F09A80BCF1004F08BF5FEAEA
:1002E800500C50F1000041EB045141EA050130BDCA
:1002F8005FEA4C0C404141EB010111F4801FA4F16D
:100308000104E9D191F0000F04BF01460020B1FAC1
:1003180081F308BF2033A3F10B03B3F120020CDAF9
:100328000C3208DD02F1140CC2F10C0201FA0CF0D7
:1003380021FA02F10CE002F11402D8BFC2F1200C3C
:1003480001FA02F120FA0CFCDCBF41EA0C019040F2
:10035800E41AA2BF01EB0451294330BD6FEA04043B
:100368001F3C1CDA0C340EDC04F11404C4F1200226
:1003780020FA04F001FA02F340EA030021FA04F338
:1003880045EA030130BDC4F10C04C4F1200220FA8F
:1003980002F001FA04F340EA0300294630BD21FACD
:1003A80004F0294630BD94F0000F83F4801306BF93
:1003B80081F480110134013D4EE77FEA645C18BF87
:1003C8007FEA655C29D094EA050F08BF90EA020F1E
:1003D80005D054EA000C04BF1946104630BD91EA16
:1003E800030F1EBF0021002030BD5FEA545C05D119
:1003F8004000494128BF41F0004130BD14F5800458
:100408003CBF01F5801130BD01F0004545F0FE41CB
:1004180041F470014FF0000030BD7FEA645C1ABF00
:10042800194610467FEA655C1CBF0B46024650EA37
:10043800013406BF52EA033591EA030F41F4002163
:1004480030BD00BF90F0000F04BF0021704730B5E9
:100458004FF4806404F132044FF000054FF00001BE
:1004680050E700BF90F0000F04BF0021704730B57F
:100478004FF4806404F1320410F0004548BF404254
:100488004FF000013EE700BF42004FEAE2014FEAA9
:1004980031014FEA02701FBF12F07F4393F07F4F84
:1004A80081F06051704792F0000F14BF93F07F4FB6
:1004B800704730B54FF4607401F0004521F00041F9
:1004C80020E700BF50EA010208BF704730B54FF07F
:1004D80000050AE050EA010208BF704730B511F084
:1004E800004502D5404261EB41014FF4806404F1BC
:1004F80032045FEA915C3FF4DCAE4FF003025FEA3E
:10050800DC0C18BF03325FEADC0C18BF033202EBC5
:10051800DC02C2F1200300FA03FC20FA02F001FA1F
:1005280003FE40EA0E0021FA02F11444C1E600BFBE
:1005380070B54FF0FF0C4CF4E06C1CEA11541DBF71
:100548001CEA135594EA0C0F95EA0C0F00F0DEF83C
:100558002C4481EA030621EA4C5123EA4C5350EA21
:10056800013518BF52EA033541F4801143F4801372
:1005780038D0A0FB02CE4FF00005E1FB02E506F003
:100588000042E0FB03E54FF00006E1FB03569CF058
:10059800000F18BF4EF0010EA4F1FF04B6F5007F5E
:1005A80064F5407404D25FEA4E0E6D4146EB0606D0
:1005B80042EAC62141EA55514FEAC52040EA5E5059
:1005C8004FEACE2EB4F1FD0C88BFBCF5E06F1ED803
:1005D800BEF1004F08BF5FEA500E50F1000041EB3A
:1005E800045170BD06F0004646EA010140EA0200E7
:1005F80081EA0301B4EB5C04C2BFD4EB0C0541EA09
:10060800045170BD41F480114FF0000E013C00F31D
:10061800AB8014F1360FDEBF002001F0004170BD41
:10062800C4F10004203C35DA0C341BDC04F114045A
:10063800C4F1200500FA05F320FA04F001FA05F2E6
:1006480040EA020001F0004221F0004110EBD370B3
:1006580021FA04F642EB06015EEA430E08BF20EADF
:10066800D37070BDC4F10C04C4F1200500FA04F382
:1006780020FA05F001FA04F240EA020001F0004114
:1006880010EBD37041F100015EEA430E08BF20EA87
:10069800D37070BDC4F1200500FA05F24EEA020ECF
:1006A80020FA04F301FA05F243EA020321FA04F0FE
:1006B80001F0004121FA04F220EA020000EBD370B5
:1006C8005EEA430E08BF20EAD37070BD94F0000FB5
:1006D8000FD101F00046400041EB010111F4801FE9
:1006E80008BF013CF7D041EA060195F0000F18BF9A
:1006F800704703F00046520043EB030313F4801FD6
:1007080008BF013DF7D043EA0603704794EA0C0F8F
:100718000CEA135518BF95EA0C0F0CD050EA4106A5
:1007280018BF52EA4306D1D181EA030101F0004122
:100738004FF0000070BD50EA410606BF104619464A
:1007480052EA430619D094EA0C0F02D150EA013656
:1007580013D195EA0C0F05D152EA03361CBF104697
:1007680019460AD181EA030101F0004141F0FE4136
:1007780041F470014FF0000070BD41F0FE4141F4BA
:10078800780170BD70B54FF0FF0C4CF4E06C1CEABA
:1007980011541DBF1CEA135594EA0C0F95EA0C0F6F
:1007A80000F0A7F8A4EB050481EA030E52EA03352A
:1007B8004FEA013100F088804FEA03334FF080554B
:1007C80045EA131343EA12634FEA022245EA111578
:1007D80045EA10654FEA00260EF000419D4208BF29
:1007E800964244F1FD0404F5407402D25B084FEAD6
:1007F8003202B61A65EB03055B084FEA32024FF482
:1008080080104FF4002CB6EB020E75EB030E22BFDE
:10081800B61A754640EA0C005B084FEA3202B6EB9E
:10082800020E75EB030E22BFB61A754640EA5C004D
:100838005B084FEA3202B6EB020E75EB030E22BFDD
:10084800B61A754640EA9C005B084FEA3202B6EBDE
:10085800020E75EB030E22BFB61A754640EADC009D
:1008680055EA060E18D04FEA051545EA16754FEAFF
:1008780006164FEAC30343EA52734FEAC2025FEA1D
:100888001C1CC0D111F4801F0BD141EA00014FF0AC
:1008980000004FF0004CB6E711F4801F04BF01437D
:1008A8000020B4F1FD0C88BFBCF5E06F3FF6AFAE99
:1008B800B5EB030C04BFB6EB020C5FEA500C50F129
:1008C800000041EB045170BD0EF0004E4EEA1131AC
:1008D80014EB5C04C2BFD4EB0C0541EA045170BDB3
:1008E80041F480114FF0000E013C90E645EA060EF7
:1008F8008DE60CEA135594EA0C0F08BF95EA0C0F25
:100908003FF43BAF94EA0C0F0AD150EA01347FF46C
:1009180034AF95EA0C0F7FF425AF104619462CE743
:1009280095EA0C0F06D152EA03353FF4FDAE1046A6
:10093800194622E750EA410618BF52EA43067FF4F7
:10094800C5AE50EA41047FF40DAF52EA43057FF487
:10095800EBAE12E74A0011D212F5001211D20DD5F2
:100968006FF47873B3EB62520ED44FEAC12343F0AD
:10097800004343EA505323FA02F070474FF0000057
:10098800704750EA013002D14FF0FF3070474FF006
:10099800000070474FEA4102B2F1E04324BFB3F5CB
:1009A800001CDCF1FE5C0DD901F0004C4FEAC002DE
:1009B8004CEA5070B2F1004F40EB830008BF20F0C2
:1009C8000100704711F0804F21D113F13872BCBF7C
:1009D80001F00040704741F480114FEA5252C2F1D1
:1009E8001802C2F1200C10FA0CF320FA02F018BF1A
:1009F80040F001004FEAC1234FEAD32303FA0CFC6D
:100A080040EA0C0023FA02F34FEA4303CCE77FEAFB
:100A1800625307D150EA01331EBF4FF0FE4040F445
:100A28004000704701F0004040F0FE4040F40000F4
:100A3800704700BF53B94AB9002908BF00281CBF36
:100A48004FF0FF314FF0FF3000F07AB9ADF1080CEC
:100A58006DE904CE00F006F8DDF804E0DDE90223D4
:100A680004B070472DE9F0478C460D460446089EB1
:100A7800002B51D18A4217466DD9B2FA82FEBEF1D7
:100A8800000F0BD0CEF1200C01FA0EF520FA0CFC69
:100A980002FA0EF74CEA050C00FA0EF44FEA174A70
:100AA800250CBCFBFAF81FFA87F90AFB18CC45EAB3
:100AB8000C4508FB09F3AB420AD9ED1908F1FF32DE
:100AC80080F02381AB4240F22081A8F102083D4426
:100AD800ED1AA4B2B5FBFAF00AFB105544EA054436
:100AE80000FB09F9A14509D9E41900F1FF3380F0A9
:100AF8000A81A14540F2078102383C44A4EB09046D
:100B080040EA08400021002E61D024FA0EF40023A8
:100B180034607360BDE8F0878B4207D9002E54D04B
:100B2800002186E821000846BDE8F087B3FA83F182
:100B3800002940F08E80AB4202D3824200F2FA8054
:100B4800841A65EB03050120AC46002E3FD086E8E9
:100B58001010BDE8F08712B90127B7FBF2F7B7FA12
:100B680087FEBEF1000F34D1EB1B3A0C1FFA87FC4D
:100B78000121B3FBF2F8250C02FB183345EA0345C3
:100B88000CFB08F3AB4207D9ED1908F1FF3002D28C
:100B9800AB4200F2D1808046ED1AA3B2B5FBF2F069
:100BA80002FB105543EA05440CFB00FCA44507D999
:100BB800E41900F1FF3302D2A44500F2B8801846C8
:100BC800A4EB0C0440EA08409DE731463046BDE8F6
:100BD800F087CEF1200405FA0EF307FA0EF720FA93
:100BE80004F83A0C25FA04F448EA0308B4FBF2F1D5
:100BF8004FEA184502FB11441FFA87FC45EA0445F1
:100C080001FB0CF3AB4200FA0EF409D9ED1901F11E
:100C1800FF3080F08A80AB4240F2878002393D4441
:100C2800EB1A1FFA88F5B3FBF2F002FB103345EA22
:100C3800034500FB0CF3AB4207D9ED1900F1FF386F
:100C48006FD2AB426DD902383D44EB1A40EA0141FC
:100C58008FE7C1F1200722FA07F88B4005FA01F463
:100C680048EA030320FA07FE4FEA134CFD404EEA18
:100C7800040EB5FBFCF94FEA1E440CFB19551FFA8C
:100C880083F844EA054509FB08F4AC4202FA01F28C
:100C980000FA01FA08D9ED1809F1FF3043D2AC4245
:100CA80041D9A9F102091D442D1B1FFA8EFEB5FB7F
:100CB800FCF00CFB10554EEA054400FB08F8A04573
:100CC80007D9E41800F1FF3529D2A04527D9023801
:100CD8001C4440EA0940A4EB0804A0FB02894C45E7
:100CE800C6464D4615D312D056B1BAEB0E0364EB87
:100CF800050404FA07F7CB401F43CC403760746003
:100D08000021BDE8F0871846F8E69046E0E6C245BF
:100D1800EAD2B8EB020E69EB03050138E4E728468E
:100D2800D7E7404691E78146BEE7014678E70238B3
:100D38003C4445E7084608E7A8F102083D442BE78C
:100D4800704700BFDFF834D0002103E00C4B5B583C
:100D5800435004310B480C4B42189A42F6D30B4AC5
:100D680002E0002342F8043B094B9A42F9D300F011
:100D78002FFC02F0FDFE00F00EF870470000022084
:100D88002C4A0008000000201C0000201C00002045
:100D9800F4000020FEE780B500AF00F04FFC00F043
:100DA80009F800F089F900F0FDF800F079F800F092
:100DB800C9F8FEE780B594B000AF0023BB60344AA1
:100DC800334B1B6C43F080531364314B1B6C03F0A3
:100DD8008053BB60BB6800237B602E4A2D4B1B6889
:100DE80043F4804313602B4B1B6803F480437B6000
:100DF8007B6802233B620123FB6210233B630223CF
:100E0800BB630023FB6308233B64A8237B640223A2
:100E1800BB640423FB6407F12003184601F0AEFC11
:100E28000346002B03D097211B4800F06DF90F23D0
:100E3800FB6002233B6100237B614FF4A053BB613D
:100E48004FF48053FB6107F10C030521184601F0AC
:100E5800BDFE0346002B03D0A5210F4800F054F92E
:100E680002F04CF802460D4BA3FB02239B091846DF
:100E780001F0B9F9042001F0C3F9002200214FF074
:100E8800FF3001F086F900BF5037BD4680BD00BF76
:100E9800003802400070004028460008D34D621018
:100EA80080B584B000AF234B234A1A60214B00223F
:100EB8005A60204B00229A601E4B00221A611D4B7B
:100EC80001229A611B4B00221A621A4B0022DA6235
:100ED800184B1A4A9A62174B0022DA60154B012206
:100EE800DA61144B01221A63124B00225A6111482D
:100EF80000F0FCFB0346002B03D0CA21104800F089
:100F080003F900233B6001237B600323BB603B465E
:100F18001946084800F040FE0346002B03D0D421B0
:100F2800074800F0F1F8034800F024FC00BF103730
:100F3800BD4680BD58000020002001400100000F80
:100F48002846000880B582B000AF134B134A1A60D8
:100F5800114801F07EF90346002B03D0E721104821
:100F680000F0D2F800233B6000237B603B46002260
:100F78001946094801F0F6F90346002B03D0F02181
:100F8800074800F0C1F80021034801F084F900BFC8
:100F98000837BD4680BD00BFA00000200074004097
:100FA8002846000880B590B000AF404B404A1A6010
:100FB8003E4B00225A603D4B00229A603B4B40F664
:100FC8007A02DA60394B00221A61384B00225A61E2
:100FD800364801F09FFF0346002B04D04FF484717C
:100FE800344800F091F80023BB630023FB6307F14A
:100FF800380319462D4802F0E6FC0346002B04D0BE
:1010080040F20F112B4800F07FF86023FB61542356
:101018003B6200237B620023BB620023FB62002348
:101028003B6300237B6307F11C03002219461F481A
:1010380002F01EF90346002B04D040F21B111D4894
:1010480000F062F800233B6000237B600023BB6054
:101058000023FB6000233B614FF400537B610023B6
:10106800BB613B461946114802F0F2FC0346002BCF
:1010780004D040F227110F4800F046F80B4800F062
:1010880007F90021094801F071FF0021074802F023
:1010980079FC064B1B68054A1268D26842F00102C7
:1010A800DA6000BF4037BD4680BD00BFB4000020F5
:1010B800000001402846000880B483B000AF002338
:1010C8007B60104A0F4B1B6B43F0010313630D4BFE
:1010D8001B6B03F001037B607B6800233B60094ABC
:1010E800084B1B6B43F010031363064B1B6B03F099
:1010F80010033B603B6800BF0C37BD465DF8047BBE
:10110800704700BF0038024080B483B000AF7860F9
:101118003960FEE780B500AF032001F02FF8002208
:1011280000216FF00B0001F034F8002200216FF06D
:101138000A0001F02EF8002200216FF0090001F0EA
:1011480028F8002200216FF0040001F022F80022A4
:1011580000216FF0030001F01CF8002200216FF05D
:10116800010001F016F8002200214FF0FF3001F0D5
:1011780010F800BF80BD000080B588B000AF78606F
:101188007B681B68144A934221D10023BB60134A31
:10119800124B5B6C43F480735364104B5B6C03F429
:1011A8008073BB60BB680123FB6003233B610023A2
:1011B8007B6107F10C031946094801F045F9002243
:1011C8000021122000F0E5FF122000F0FEFF00BF12
:1011D8002037BD4680BD00BF0020014000380240D6
:1011E8000000024080B588B000AF78607B681B685B
:1011F800104A934219D10023BB600F4A0E4B1B6C57
:1012080043F0005313640C4B1B6C03F00053BB609A
:10121800BB681023FB6003233B6100237B6107F15C
:101228000C031946054801F00FF900BF2037BD46E9
:1012380080BD00BF0074004000380240000002403A
:1012480080B584B000AF78607B681B680E4A934213
:1012580015D10023FB600D4A0C4B5B6C43F0010376
:1012680053640A4B5B6C03F00103FB60FB680022CC
:101278000021192000F08DFF192000F0A6FF00BF03
:101288001037BD4680BD00BF000001400038024055
:1012980080B588B000AF78607B681B68134A9342BA
:1012A80020D18023FB6002233B6100237B61002364
:1012B800BB610123FB6107F10C0319460C4801F0DF
:1012C800C3F84FF40073FB6002233B6100237B618A
:1012D8000023BB610123FB6107F10C031946054894
:1012E80001F0B2F800BF2037BD4680BD00000140C4
:1012F800000002400010024080B400AF00BFBD46AD
:101308005DF8047B704780B400AFFEE780B400AF9F
:10131800FEE780B400AFFEE780B400AFFEE780B41C
:1013280000AF00BFBD465DF8047B704780B400AFD6
:1013380000BFBD465DF8047B704780B400AF00BFB6
:10134800BD465DF8047B704780B500AF00F0B4F986
:1013580000F072FF00BF80BD80B500AF024800F00A
:10136800B9FA00BF80BD00BF5800002080B582B028
:1013780000AF7860786800F0EEFB0246024B1A6016
:1013880000BF0837BD4680BD3800002000000000BF
:1013980098B500AF7A4C7B4B1B681846FFF774F87A
:1013A8004FF00002784BFEF711FF02460B4610463D
:1013B80019466DA3D3E90023FFF7BAF802460B4696
:1013C80010461946FFF7C6FA034663636F4B1B685E
:1013D80007EE903AF8EE677A17EE900AFFF754F89E
:1013E80063A3D3E90023FFF7A3F803460C46184686
:1013F800214661A3D3E90023FEF7E6FE03460C4627
:1014080018462146FFF7C6FA0246614B1A60614B3F
:101418001B6801335F4A13605E4B1B6845F2C34289
:10142800934202DD5B4B00221A605A4B1B6807EEA1
:10143800903AB8EEE77A584BD3ED007A67EE277A00
:10144800B0EE670A02F0B8FBB0EE407A534BD3ED2A
:10145800007A67EE277A524BC3ED007A4C4B93ED36
:10146800007A4F4BD3ED007A77EE677A4D4BC3ED98
:10147800007A4D4BD3ED007ABAEE047AF4EEC77ACF
:10148800F1EE10FA14DD484BD3ED007AB2EE047A8F
:10149800F4EEC77AF1EE10FA0AD5434B93ED007AD1
:1014A800404BD3ED007A77EE277A3F4BC3ED007AB5
:1014B8003E4B93ED007A3B4BD3ED007A27EE277A2B
:1014C8003B4BD3ED006A3B4BD3ED007A66EEA76A3F
:1014D800354BD3ED007A66EEA77A77EE277A364B4E
:1014E800C3ED007A344BD3ED006A344B93ED007AA8
:1014F800C6EE877A234BC3ED007A224BD3ED007AF0
:10150800B7EE007AF4EEC77AF1EE10FA04DD1D4B5F
:101518004FF07E521A600CE01A4BD3ED007ABFEE02
:10152800007AF4EEC77AF1EE10FA02D5154B244A88
:101538001A60244801F094FD194B93ED007A174B7B
:10154800D3ED007A77EE277A9FED1F7A67EE877AD8
:10155800FCEEE77A17EE903A002200211B4800F0D3
:101568004EFF00BF98BD00BF0000000000F490408F
:10157800C7BAB88D06F0563F24287E8CB96B084050
:10158800000001403C0000200000F03F380000202F
:1015980040000020440000200C000020080000202B
:1015A80048000020500000205400002010000020B7
:1015B80014000020040000204C000020000000203F
:1015C800000080BFB400002000000045A0000020FB
:1015D80080B400AF164A164BD3F8883043F4700332
:1015E800C2F88830134A134B1B6843F00103136099
:1015F800104B00229A600F4A0E4B1B6823F084732D
:1016080023F4803313600B4B0B4A5A60094A094B89
:101618001B6823F480231360064B0022DA60044B16
:101628004FF000629A6000BFBD465DF8047B7047CA
:1016380000ED00E0003802401030002480B500AF13
:101648000E4A0E4B1B6843F4007313600B4A0B4B96
:101658001B6843F480631360084A084B1B6843F413
:1016680080731360032000F089FD002000F008F863
:10167800FFF750FD0023184680BD00BF003C024024
:1016880080B582B000AF7860094B1B68094AA2FB9D
:1016980003239B09184600F0A6FD002279684FF045
:1016A800FF3000F076FD002318460837BD4680BDA0
:1016B80018000020D34D621080B400AF044B1B68A3
:1016C8000133034A136000BFBD465DF8047B7047D1
:1016D800F000002080B400AF034B1B681846BD46DD
:1016E8005DF8047B704700BFF000002080B584B02F
:1016F80000AF78600023FB737B68002B01D10123C6
:1017080033E07B681B6C002B09D17B6800225A648C
:101718007B68002283F83C207868FFF72DFD7B6802
:101728001B6C03F01003002B18D17B681B6C23F48F
:10173800885323F0020343F002027B681A64786836
:1017480000F04EFB7B6800225A647B681B6C23F018
:10175800030343F001027B681A6401E00123FB7371
:101768007B68002283F83C20FB7B18461037BD4677
:1017780080BD000080B485B000AF78600023BB60F6
:101788007B6893F83C30012B01D1022393E07B68FE
:10179800012283F83C207B681B689B6803F00103E7
:1017A800012B18D07B681B687A681268926842F02F
:1017B80001029A60434B1B68434AA2FB03239A0C1D
:1017C80013465B001344BB6002E0BB68013BBB608F
:1017D800BB68002BF9D17B681B689B6803F0010389
:1017E800002B67D07B681B6C23F4E06323F00103B4
:1017F80043F480727B681A647B681B685B6803F437
:101808008063002B07D07B681B6C23F4405343F4A0
:1018180080527B681A647B681B6C03F48053002B2E
:1018280006D07B685B6C23F006027B685A6402E092
:101838007B6800225A647B68002283F83C20234B93
:10184800FB607B681B686FF022021A607B681A686D
:101858007B681B685B6843F0806343F02003536038
:10186800FB685B6803F01F03002B0FD17B681B68C4
:101878009B6803F04053002B1CD17B681B687A6877
:101888001268926842F080429A6013E07B681B6895
:101898000F4A93420ED17B681B689B6803F0405344
:1018A800002B07D17B681B687A681268926842F03F
:1018B80080429A60002318461437BD465DF8047BC1
:1018C800704700BF1800002083DE1B43002301403F
:1018D8000020014080B584B000AF78600023FB6031
:1018E8000023BB607B681B681B6803F00203022BA4
:1018F8000CBF01230023DBB2FB607B681B685B68BD
:1019080003F02003202B0CBF01230023DBB2BB60B4
:10191800FB68002B49D0BB68002B46D07B681B6C4A
:1019280003F01003002B05D17B681B6C43F4007295
:101938007B681A647B681B689B6803F04053002B24
:101948002BD17B689B69002B27D17B681B68DB6ADE
:1019580003F47003002B06D07B681B689B6803F4B4
:101968008063002B19D17B681B687A6812685268FB
:1019780022F020025A607B681B6C23F480727B681B
:101988001A647B681B6C03F48053002B05D17B68B9
:101998001B6C43F001027B681A647868FFF7E6FC69
:1019A8007B681B686FF012021A607B681B681B68F3
:1019B80003F00403042B0CBF01230023DBB2FB60FC
:1019C8007B681B685B6803F08003802B0CBF0123D6
:1019D8000023DBB2BB60FB68002B57D0BB68002B31
:1019E80054D07B681B6C03F01003002B05D17B6877
:1019F8001B6C43F400527B681A647B681B689B6805
:101A080003F44013002B39D17B681B689B6B03F4EC
:101A18004013002B06D07B681B689B6803F4806327
:101A2800002B2BD17B681B685B6803F48063002B59
:101A380024D17B681B689B6803F04053002B1DD1A1
:101A48007B689B69002B19D17B681B687A681268D0
:101A5800526822F080025A607B681B6C23F4805223
:101A68007B681A647B681B6C03F48073002B05D1B8
:101A78007B681B6C43F001027B681A64786800F08D
:101A8800A9FA7B681B686FF00C021A607B681B68F8
:101A98001B6803F00103012B0CBF01230023DBB2F9
:101AA800FB607B681B685B6803F04003402B0CBF3E
:101AB80001230023DBB2BB60FB68002B17D0BB6897
:101AC800002B14D07B681B681B6803F00103012BF3
:101AD8000DD17B681B6C43F480327B681A6478688C
:101AE80000F046F87B681B686FF001021A607B689B
:101AF8001B681B6803F02003202B0CBF0123002365
:101B0800DBB2FB607B681B685B6803F08063B3F142
:101B1800806F0CBF01230023DBB2BB60FB68002B86
:101B280015D0BB68002B12D07B685B6C43F00202B7
:101B38007B685A647B681B686FF020021A607868BB
:101B480000F020F87B681B686FF020021A6000BF65
:101B58001037BD4680BD80B483B000AF78607B6825
:101B68001B68DB6C18460C37BD465DF8047B704774
:101B780080B483B000AF786000BF0C37BD465DF815
:101B8800047B704780B483B000AF786000BF0C3727
:101B9800BD465DF8047B704790B484B000AF7860B0
:101BA80039600023BB607B6893F83C30012B01D17E
:101BB800022307E17B68012283F83C203B681B680D
:101BC800092B26D97B681A687B681B68D9683B682B
:101BD8001B689BB2184603465B0003441E3B072064
:101BE80000FA03F3DB430B40D3607B681A687B6819
:101BF8001B68D9683B6898683B681B689BB21C46A1
:101C080023465B0023441E3B00FA03F30B43D360D7
:101C180023E07B681A687B681B6819693B681B6846
:101C28009BB2184603465B000344072000FA03F3FF
:101C3800DB430B4013617B681A687B681B68196972
:101C48003B6898683B681B689BB21C4623465B0050
:101C5800234400FA03F30B4313613B685B68062BCC
:101C680024D87B6819687B681B68586B3B685A687E
:101C780013469B001344053B1F2202FA03F3DB4380
:101C880003404B637B6819687B681B68586B3B682B
:101C98001B689BB21C463B685A6813469B0013445A
:101CA800053B04FA03F303434B634CE03B685B6872
:101CB8000C2B24D87B6819687B681B68186B3B68F9
:101CC8005A6813469B001344233B1F2202FA03F36E
:101CD800DB4303400B637B6819687B681B68186BE0
:101CE8003B681B689BB21C463B685A6813469B00BE
:101CF8001344233B04FA03F303430B6323E07B6899
:101D080019687B681B68D86A3B685A6813469B0049
:101D18001344413B1F2202FA03F3DB430340CB6227
:101D28007B6819687B681B68D86A3B681B689BB22C
:101D38001C463B685A6813469B001344413B04FA0F
:101D480003F30343CB62224BFB607B681B68214A89
:101D5800934209D13B681B68122B05D1FB685B686D
:101D680043F48002FB685A607B681B68194A9342F7
:101D780023D13B681B68102B03D03B681B68112BD1
:101D88001BD1FB685B6843F40002FB685A603B6840
:101D98001B68102B11D1104B1B68104AA2FB0323A0
:101DA8009A0C13469B0013445B00BB6002E0BB68BF
:101DB800013BBB60BB68002BF9D17B68002283F82C
:101DC8003C20002318461037BD4690BC704700BF22
:101DD80000230140002001401800002083DE1B433F
:101DE80080B485B000AF7860784BFB60FB685B68B7
:101DF80023F44032FB685A60FB685A687B685B686A
:101E08001A43FB685A607B681B687A6812685268D4
:101E180022F480725A607B681B687A68126851687D
:101E28007A68126912020A435A607B681B687A68EA
:101E38001268526822F040725A607B681B687A68A0
:101E4800126851687A6892680A435A607B681B680E
:101E58007A681268926822F400629A607B681B684C
:101E68007A68126891687A68D2680A439A607B68CF
:101E78009B6A574A934222D07B681B687A6812682B
:101E8800926822F070629A607B681B687A681268B0
:101E980091687A68926A0A439A607B681B687A68D4
:101EA8001268926822F040529A607B681B687A68D0
:101EB800126891687A68D26A0A439A600FE07B6870
:101EC8001B687A681268926822F070629A607B6870
:101ED8001B687A681268926822F040529A607B68A0
:101EE8001B687A681268926822F002029A607B681E
:101EF8001B687A68126891687A68926952000A4386
:101F08009A607B681B6A002B1BD07B681B687A6809
:101F18001268526842F400625A607B681B687A68EB
:101F28001268526822F460425A607B681B687A68BB
:101F3800126851687A68526A013A52030A435A6031
:101F480007E07B681B687A681268526822F40062AE
:101F58005A607B681B687A681268D26A22F4700239
:101F6800DA627B681B687A681268D16A7A68D26913
:101F7800013A12050A43DA627B681B687A681268BC
:101F8800926822F400729A607B681B687A6812680B
:101F980091687A68126B52020A439A607B681B68E0
:101FA8007A681268926822F480629A607B681B687B
:101FB8007A68126891687A68526992020A439A604C
:101FC80000BF1437BD465DF8047B7047002301400D
:101FD8000100000F80B483B000AF786000BF0C37F9
:101FE800BD465DF8047B704780B485B000AF78606B
:101FF8007B6803F00703FB600C4BDB68BB60BA68C7
:102008004FF6FF031340BB60FB681A02BB6813431B
:1020180043F0BF6343F40033BB60044ABB68D3603A
:1020280000BF1437BD465DF8047B704700ED00E043
:1020380080B400AF044BDB681B0A03F007031846A3
:10204800BD465DF8047B704700ED00E080B483B0C6
:1020580000AF0346FB71094997F907305B09FA7924
:1020680002F01F02012000FA02F241F8232000BF0B
:102078000C37BD465DF8047B704700BF00E100E007
:1020880080B483B000AF03463960FB7197F907301D
:10209800002B0BDA0D49FB7903F00F03043B3A6878
:1020A800D2B21201D2B20B441A7609E0084997F964
:1020B80007303A68D2B21201D2B20B4483F8002337
:1020C80000BF0C37BD465DF8047B704700ED00E0AB
:1020D80000E100E080B489B000AFF860B9607A60D0
:1020E800FB6803F00703FB61FB69C3F10703042BDB
:1020F80028BF0423BB61FB690433062B02D9FB69A3
:10210800033B00E000237B610122BB6902FA03F371
:102118005A1EBB681A407B699A4001217B6901FA03
:1021280003F3591E7B680B40134318462437BD46FA
:102138005DF8047B7047000080B582B000AF78601E
:102148007B68013BB3F1807F01D301230FE00A4A8A
:102158007B68013B53600F214FF0FF30FFF790FF82
:10216800054B00229A60044B07221A600023184688
:102178000837BD4680BD00BF10E000E080B582B0E2
:1021880000AF78607868FFF72FFF00BF0837BD46BB
:1021980080BD80B586B000AF0346B9607A60FB7336
:1021A80000237B61FFF744FF78617A68B968786932
:1021B800FFF790FF024697F90F3011461846FFF7D0
:1021C8005FFF00BF1837BD4680BD80B582B000AF45
:1021D8000346FB7197F907301846FFF737FF00BF32
:1021E8000837BD4680BD80B582B000AF786078689A
:1021F800FFF7A2FF034618460837BD4680BD00001A
:1022080080B483B000AF78607B68042B06D1094A9C
:10221800084B1B6843F00403136005E0054A054BAF
:102228001B6823F00403136000BF0C37BD465DF83C
:10223800047B704710E000E080B500AF00F002F8C2
:1022480000BF80BD80B400AF00BFBD465DF8047B11
:10225800704780B582B000AF78607B68002B01D1F1
:10226800012314E07B681B79DBB2002B05D17B6866
:1022780000225A717868FEF7B5FF7B6802221A714E
:102288007B6800221A617B6801221A7100231846B4
:102298000837BD4680BD80B485B000AF786039602E
:1022A8000023FB600023BB607B685B79012B01D1B5
:1022B800022351E07B6801225A717B6802221A715D
:1022C8007B681B687A681268116801203A6800FA0E
:1022D80002F20A431A603B68002B1AD17B681B681C
:1022E8001B6803F00403FB607B681B681B6803F032
:1022F8003803BB60FB68042B27D1BB68382B24D17B
:102308007B681B687A681268526842F001025A605A
:102318001BE07B681B681B6803F48023FB607B68F9
:102328001B681B6803F46013BB60FB68B3F5802F60
:102338000BD1BB68B3F5601F07D17B681B687A684F
:102348001268526842F002025A607B6801221A71D0
:102358007B6800225A71002318461437BD465DF881
:10236800047B704780B487B000AFF860B9607A60CA
:1023780000237B6100233B61FB685B79012B01D162
:10238800022336E0FB6801225A71FB6802221A71A7
:10239800FB681B681B687B6140F6FE727B6802FA6B
:1023A80003F3DB437A6913407B61BB681A68BB6837
:1023B8005B6813433B613A697B6802FA03F37A6905
:1023C80013437B61FB681B687A691A60FB681B68AA
:1023D800FA6812681168C0207A6800FA02F2D243DB
:1023E8000A401A60FB6801221A71FB6800225A71C0
:1023F800002318461C37BD465DF8047B704780B43F
:1024080087B000AFF860B9607A603B6000237B61F9
:10241800FB681B687B61BB68002B05D17A697B6808
:10242800134408337B6104E07A697B6813441433EE
:102438007B617B691A463B681360002318461C378A
:10244800BD465DF8047B704780B489B000AF786002
:10245800396000237B6100233B610023BB610023BB
:10246800FB616BE10122FB6902FA03F37B613B68C4
:102478001A687B6913403B613A697B699A4240F06C
:102488005A813B685B68022B03D03B685B68122B60
:1024980023D1FB69DA087B68083253F82230BB6124
:1024A800FB6903F007039B000F2202FA03F3DB43E7
:1024B800BA691340BB613B681A69FB6903F00703FB
:1024C8009B0002FA03F3BA691343BB61FB69DA089C
:1024D8007B680832B96943F822107B681B68BB61C6
:1024E800FB695B00032202FA03F3DB43BA6913407A
:1024F800BB613B685B6803F00302FB695B0002FA9F
:1025080003F3BA691343BB617B68BA691A603B6815
:102518005B68012B0BD03B685B68022B07D03B68DC
:102528005B68112B03D03B685B68122B30D17B684A
:102538009B68BB61FB695B00032202FA03F3DB4380
:10254800BA691340BB613B68DA68FB695B0002FA51
:1025580003F3BA691343BB617B68BA699A607B6805
:102568005B68BB610122FB6902FA03F3DB43BA69CA
:102578001340BB613B685B681B0903F00102FB6900
:1025880002FA03F3BA691343BB617B68BA695A60FC
:102598007B68DB68BB61FB695B00032202FA03F31B
:1025A800DB43BA691340BB613B689A68FB695B000F
:1025B80002FA03F3BA691343BB617B68BA69DA604C
:1025C8003B685B6803F08053002B00F0B480002365
:1025D800FB605F4A5E4B5B6C43F4804353645C4B27
:1025E8005B6C03F48043FB60FB685A4AFB699B08F9
:1025F800023352F82330BB61FB6903F003039B00ED
:102608000F2202FA03F3DB43BA691340BB617B680C
:10261800514A93422BD07B68504A934225D07B681D
:102628004F4A93421FD07B684E4A934219D07B6829
:102638004D4A934213D07B684C4A93420DD07B6835
:102648004B4A934207D07B684A4A934201D10723F9
:102658000EE008230CE006230AE0052308E0042323
:1026680006E0032304E0022302E0012300E0002344
:10267800FA6902F0030292009340BA691343BB61FE
:102688003449FB699B080233BA6941F823203A4B65
:102698001B68BB613B69DB43BA691340BB613B689C
:1026A8005B6803F48033002B03D0BA693B6913439A
:1026B800BB61314ABB6913602F4B5B68BB613B69E7
:1026C800DB43BA691340BB613B685B6803F40033C2
:1026D800002B03D0BA693B691343BB61264ABB6927
:1026E8005360254B9B68BB613B69DB43BA69134068
:1026F800BB613B685B6803F48013002B03D0BA69A5
:102708003B691343BB611C4ABB6993601A4BDB6886
:10271800BB613B69DB43BA691340BB613B685B68DB
:1027280003F40013002B03D0BA693B691343BB6160
:10273800114ABB69D360FB690133FB61FB690F2B4D
:102748007FF690AE00BF2437BD465DF8047B704726
:1027580000380240003801400000024000040240F6
:1027680000080240000C0240001002400014024021
:1027780000180240001C0240003C014080B584B0B3
:1027880000AF78607B68002B01D1012313E27B68DE
:102798001B6803F00103002B75D09F4B9B6803F067
:1027A8000C03042B0CD09C4B9B6803F00C03082BE8
:1027B80012D1994B5B6803F48003B3F5800F0BD1FA
:1027C800954B1B6803F40033002B5BD07B685B6878
:1027D800002B57D10123EEE17B685B68B3F5803F9E
:1027E80006D18D4A8C4B1B6843F4803313601DE07F
:1027F8007B685B68B3F5A02F0CD1874A864B1B68B2
:1028080043F480231360844A834B1B6843F480336A
:1028180013600BE0804A804B1B6823F480331360FD
:102828007D4A7D4B1B6823F4802313607B685B68BB
:10283800002B13D0FEF74EFFF86008E0FEF74AFFC2
:102848000246FB68D31A642B01D90323B3E1724B08
:102858001B6803F40033002BF0D014E0FEF73AFFB6
:10286800F86008E0FEF736FF0246FB68D31A642BCF
:1028780001D903239FE1684B1B6803F40033002B45
:10288800F0D100E000BF7B681B6803F00203002B57
:1028980063D0614B9B6803F00C03002B0BD05E4B9D
:1028A8009B6803F00C03082B1CD15B4B5B6803F49B
:1028B8008003002B16D1584B1B6803F00203002B32
:1028C80005D07B68DB68012B01D0012373E15249F5
:1028D800514B1B6823F0F8027B681B69DB0013432C
:1028E8000B603AE07B68DB68002B20D04B4B012261
:1028F8001A60FEF7EFFEF86008E0FEF7EBFE02460E
:10290800FB68D31A022B01D9032354E1424B1B68FD
:1029180003F00203002BF0D03F493F4B1B6823F024
:10292800F8027B681B69DB0013430B6015E03B4B27
:1029380000221A60FEF7CEFEF86008E0FEF7CAFE35
:102948000246FB68D31A022B01D9032333E1324B29
:102958001B6803F00203002BF0D17B681B6803F0AF
:102968000803002B30D07B685B69002B16D02C4BFA
:1029780001221A60FEF7AEFEF86008E0FEF7AAFE34
:102988000246FB68D31A022B01D9032313E1224B19
:102998005B6F03F00203002BF0D015E0204B002200
:1029A8001A60FEF797FEF86008E0FEF793FE02460D
:1029B800FB68D31A022B01D90323FCE0164B5B6F8B
:1029C80003F00203002BF0D17B681B6803F00403BB
:1029D800002B00F086800023BB600F4A0E4B1B6C57
:1029E80043F0805313640C4B1B6C03F08053BB60A3
:1029F800BB680C4A0B4B1B6843F480731360FEF7EB
:102A080069FEF86010E0FEF765FE0246FB68D31A1F
:102A1800022B09D90323CEE00038024000004742C8
:102A2800800E474200700040654B1B6803F48073BA
:102A3800002BE8D07B689B68012B06D1614A614B6B
:102A48001B6F43F0010313671CE07B689B68052B31
:102A58000CD15C4A5B4B1B6F43F004031367594A64
:102A6800584B1B6F43F0010313670BE0554A554B56
:102A78001B6F23F001031367524A524B1B6F23F05D
:102A8800040313677B689B68002B15D0FEF722FEB2
:102A9800F8600AE0FEF71EFE0246FB68D31A41F210
:102AA8008832934201D9032385E0464B1B6F03F01C
:102AB8000203002BEED014E0FEF70CFEF8600AE0EB
:102AC800FEF708FE0246FB68D31A41F288329342A9
:102AD80001D903236FE03B4B1B6F03F00203002B6C
:102AE800EED17B689B69002B64D0364B9B6803F062
:102AF8000C03082B5CD07B689B69022B41D1324BBD
:102B080000221A60FEF7E6FDF86008E0FEF7E2FD35
:102B18000246FB68D31A022B01D903234BE0294B49
:102B28001B6803F00073002BF0D126497B68DA6933
:102B38007B681B6A1A437B685B6A9B011A437B6844
:102B48009B6A5B08013B1B041A437B68DB6A1B0614
:102B580013434B601C4B01221A60FEF7BBFDF86063
:102B680008E0FEF7B7FD0246FB68D31A022B01D92D
:102B7800032320E0134B1B6803F00073002BF0D0F5
:102B880018E0114B00221A60FEF7A4FDF86008E077
:102B9800FEF7A0FD0246FB68D31A022B01D90323D6
:102BA80009E0084B1B6803F00073002BF0D101E02B
:102BB800012300E0002318461037BD4680BD00BF42
:102BC80000700040003802406000474280B584B081
:102BD80000AF786039607B68002B01D10123CAE01F
:102BE800674B1B6803F00F023B689A420CD2644B98
:102BF8003A68D2B21A70624B1B6803F00F023B6846
:102C08009A4201D00123B6E07B681B6803F00203F7
:102C1800002B20D07B681B6803F00403002B05D031
:102C2800584A584B9B6843F4E05393607B681B6891
:102C380003F00803002B05D0524A524B9B6843F41B
:102C4800604393604F494F4B9B6823F0F0027B68C9
:102C58009B6813438B607B681B6803F00103002BA0
:102C680044D07B685B68012B07D1464B1B6803F493
:102C78000033002B19D101237DE07B685B68022BB0
:102C880003D07B685B68032B07D13E4B1B6803F0BE
:102C98000073002B09D101236DE03A4B1B6803F048
:102CA8000203002B01D1012365E03649354B9B68AF
:102CB80023F003027B685B6813438B60FEF70AFD11
:102CC800F8600AE0FEF706FD0246FB68D31A41F2F7
:102CD8008832934201D903234DE02A4B9B6803F0C5
:102CE8000C027B685B689B009A42EBD1244B1B6803
:102CF80003F00F023B689A420CD9214B3A68D2B2D2
:102D08001A701F4B1B6803F00F023B689A4201D0F0
:102D1800012330E07B681B6803F00403002B08D014
:102D28001849184B9B6823F4E0527B68DB6813430F
:102D38008B607B681B6803F00803002B09D01149DE
:102D4800104B9B6823F460427B681B69DB001343CC
:102D58008B6000F01DF801460A4B9B681B0903F0C5
:102D68000F03094AD35C21FA03F3084A13600020D1
:102D7800FEF786FC002318461037BD4680BD00BF0D
:102D8800003C0240003802403C4600081800002081
:102D98002DE9F04F87B000AF0022FA6000227A6177
:102DA8000022BA6000223A61514A926802F00C028D
:102DB800042A07D0082A08D0002A40F090804D4BFA
:102DC8003B618FE04C4B3B618CE0494A526802F012
:102DD8003F02FA60464A526802F48002002A23D071
:102DE800434B5B689B094FF0000440F2FF114FF022
:102DF800000203EA010304EA02043F4A02FB04F169
:102E0800002202FB03F20A443B49A3FB01015318C9
:102E18001946FB684FF000041A462346FDF70AFEE0
:102E280003460C467B614CE0314A526892091146D0
:102E38004FF0000240F2FF154FF0000605EA0105C9
:102E480006EA0206294632464FEA421B4BEAD16B94
:102E58004FEA411A51465A46AA46B34655465E4677
:102E68004D1B62EB060629463246940144EA9164FA
:102E78008B015B1A64EB02044FEAC40949EA5379EF
:102E88004FEAC30843464C4655465E46ED1846EBA6
:102E980004062B463446A2027A607A6842EA9352C4
:102EA8007A609B023B6097E8180018462146FB6849
:102EB8004FF000041A462346FDF7BCFD03460C46B6
:102EC8007B610B4B5B681B0C03F0030301335B0056
:102ED800BB607A69BB68B2FBF3F33B6102E0054B68
:102EE8003B6100BF3B6918461C37BD46BDE8F08F03
:102EF800003802400024F40040787D0180B400AF1F
:102F0800034B1B681846BD465DF8047B704700BF3D
:102F18001800002080B582B000AF78607B68002B75
:102F280001D101231DE07B6893F83930DBB2002B17
:102F380006D17B68002283F838207868FEF780F98C
:102F48007B68022283F839207B681A687B6804331F
:102F58001946104600F084FA7B68012283F839206C
:102F6800002318460837BD4680BD000080B582B0F2
:102F780000AF786039603B680C2B41D801A252F849
:102F880023F000BFC12F00080930000809300008ED
:102F980009300008D32F000809300008093000085C
:102FA80009300008E52F000809300008093000083A
:102FB80009300008F72F00087B681B687A681268D8
:102FC800D26842F00202DA601BE07B681B687A680C
:102FD8001268D26842F00402DA6012E07B681B686B
:102FE8007A681268D26842F00802DA6009E07B6801
:102FF8001B687A681268D26842F01002DA6000E052
:1030080000BF7B681B6801223968184600F04AFB3C
:103018007B681B68104A934204D07B681B680F4A80
:10302800934201D1012300E00023002B07D07B68E5
:103038001B687A681268526C42F400425A647B68D2
:103048001B687A681268126842F001021A6000234D
:1030580018460837BD4680BD000001400004014005
:1030680080B582B000AF78607B681B681B6903F08D
:103078000203022B22D17B681B68DB6803F0020382
:10308800022B1BD17B681B686FF002021A617B68F8
:1030980001221A767B681B689B6903F00303002BE7
:1030A80003D0786800F0BEF905E0786800F0B0F960
:1030B800786800F0C1F97B6800221A767B681B6883
:1030C8001B6903F00403042B22D17B681B68DB68AF
:1030D80003F00403042B1BD17B681B686FF0040208
:1030E8001A617B6802221A767B681B689B6903F465
:1030F8004073002B03D0786800F094F905E07868F5
:1031080000F086F9786800F097F97B6800221A7653
:103118007B681B681B6903F00803082B22D17B68B6
:103128001B68DB6803F00803082B1BD17B681B684E
:103138006FF008021A617B6804221A767B681B68A4
:10314800DB6903F00303002B03D0786800F06AF909
:1031580005E0786800F05CF9786800F06DF97B6844
:1031680000221A767B681B681B6903F01003102B7A
:1031780022D17B681B68DB6803F01003102B1BD17E
:103188007B681B686FF010021A617B6808221A7648
:103198007B681B68DB6903F44073002B03D07868F5
:1031A80000F040F905E0786800F032F9786800F03E
:1031B80043F97B6800221A767B681B681B6903F059
:1031C8000103012B0ED17B681B68DB6803F0010348
:1031D800012B07D17B681B686FF001021A617868C0
:1031E80000F00CF97B681B681B6903F08003802BD7
:1031F8000ED17B681B68DB6803F08003802B07D146
:103208007B681B686FF080021A61786800F083FCA5
:103218007B681B681B6903F04003402B0ED17B6859
:103228001B68DB6803F04003402B07D17B681B68F1
:103238006FF040021A61786800F008F97B681B6833
:103248001B6903F02003202B0ED17B681B68DB6809
:1032580003F02003202B07D17B681B686FF0200246
:103268001A61786800F04DFC00BF0837BD4680BD84
:1032780080B584B000AFF860B9607A60FB6893F8F5
:103288003830012B01D10223B4E0FB68012283F816
:103298003820FB68022283F839207B680C2B00F267
:1032A8009F8001A252F823F0E5320008E9330008B4
:1032B800E9330008E933000825330008E93300083A
:1032C800E9330008E933000867330008E9330008E8
:1032D800E9330008E9330008A7330008FB681B68D6
:1032E800B968184600F002FAFB681B68FA681268A9
:1032F800926942F008029A61FB681B68FA681268D2
:10330800926922F004029A61FB681B68FA681268E5
:103318009169BA6812690A439A6162E0FB681B689E
:10332800B968184600F046F9FB681B68FA68126825
:10333800926942F400629A61FB681B68FA68126835
:10334800926922F480629A61FB681B68FA681268C5
:103358009169BA68126912020A439A6141E0FB68EE
:103368001B68B968184600F035FAFB681B68FA68EC
:103378001268D26942F00802DA61FB681B68FA68D1
:103388001268D26922F00402DA61FB681B68FA68E5
:103398001268D169BA6812690A43DA6121E0FB68E8
:1033A8001B68B968184600F08DFAFB681B68FA6854
:1033B8001268D26942F40062DA61FB681B68FA6835
:1033C8001268D26922F48062DA61FB681B68FA68C5
:1033D8001268D169BA68126912020A43DA6100E018
:1033E80000BFFB68012283F83920FB68002283F8BC
:1033F8003820002318461037BD4680BD80B483B0FE
:1034080000AF786000BF0C37BD465DF8047B70479D
:1034180080B483B000AF786000BF0C37BD465DF85C
:10342800047B704780B483B000AF786000BF0C376E
:10343800BD465DF8047B704780B483B000AF786008
:1034480000BF0C37BD465DF8047B704780B483B07D
:1034580000AF786000BF0C37BD465DF8047B70474D
:1034680080B485B000AF786039600023FB607B686A
:103478001B68FB607B68444A934213D07B68B3F1B6
:10348800804F0FD07B68414A93420BD07B68404AFB
:10349800934207D07B683F4A934203D07B683E4AF9
:1034A800934201D1012300E00023002B08D0FB68E0
:1034B80023F07003FB603B685B68FA681343FB60AA
:1034C8007B68314A93422BD07B68B3F1804F27D079
:1034D8007B682E4A934223D07B682D4A93421FD0A3
:1034E8007B682C4A93421BD07B682B4A934217D0A7
:1034F8007B682A4A934213D07B68294A93420FD0AB
:103508007B68284A93420BD07B68274A934207D0AE
:103518007B68264A934203D07B68254A934201D1AF
:10352800012300E00023002B08D0FB6823F440733C
:10353800FB603B68DB68FA681343FB607B68FA68EA
:103548001A603B689A687B68DA623B681A687B682D
:103558009A627B680C4A934203D07B680E4A934276
:1035680001D1012300E00023002B03D03B681A6936
:103578007B681A637B6801225A6100BF1437BD4615
:103588005DF8047B704700BF000001400004004064
:1035980000080040000C00400004014000400140C9
:1035A800004401400048014000180040001C004051
:1035B8000020004080B487B000AF786039600023F5
:1035C800FB6000237B6100233B617B681B6A23F05F
:1035D80010027B681A627B681B6A7B617B685B6888
:1035E8003B617B689B69FB60FB6823F4E043FB60FD
:1035F800FB6823F44073FB603B681B681B02FA6896
:103608001343FB607B6923F020037B613B689B6865
:103618001B017A6913437B617B68204A934203D07C
:103628007B681F4A934201D1012300E00023002B4D
:1036380021D07B6923F080037B613B68DB681B0139
:103648007A6913437B617B6923F040037B613B69A3
:1036580023F480633B613B6923F400633B613B686F
:103668005B699B003A6913433B613B689B699B001C
:103678003A6913433B617B683A695A607B68FA6828
:103688009A613B685A687B689A637B687A691A62B0
:1036980000BF1C37BD465DF8047B70470000014041
:1036A8000004014080B487B000AFF860B9607A6068
:1036B80000237B610122BB6802FA03F37B61FB688C
:1036C8001A6A7B69DB431A40FB681A62FB681A6A4C
:1036D8007968BB6801FA03F31A43FB681A6200BFF2
:1036E8001C37BD465DF8047B7047000080B487B086
:1036F80000AF786039600023FB6000237B61002302
:103708003B617B681B6A23F001027B681A627B6855
:103718001B6A7B617B685B683B617B689B69FB60BC
:10372800FB6823F07003FB60FB6823F00303FB6076
:103738003B681B68FA681343FB607B6923F002034C
:103748007B613B689B687A6913437B617B681F4A8E
:10375800934203D07B681E4A934201D1012300E0C3
:103768000023002B1ED07B6923F008037B613B6894
:10377800DB687A6913437B617B6923F004037B610F
:103788003B6923F480733B613B6923F400733B611D
:103798003B685B693A6913433B613B689B693A69DB
:1037A80013433B617B683A695A607B68FA689A619F
:1037B8003B685A687B685A637B687A691A6200BFFB
:1037C8001C37BD465DF8047B704700BF0000014010
:1037D8000004014080B487B000AF786039600023EE
:1037E800FB6000237B6100233B617B681B6A23F439
:1037F80080727B681A627B681B6A7B617B685B6886
:103808003B617B68DB69FB60FB6823F07003FB604E
:10381800FB6823F00303FB603B681B68FA681343EB
:10382800FB607B6923F400737B613B689B681B0228
:103838007A6913437B617B68204A934203D07B6893
:103848001F4A934201D1012300E00023002B21D01D
:103858007B6923F400637B613B68DB681B027A6940
:1038680013437B617B6923F480637B613B6923F4A9
:1038780080533B613B6923F400533B613B685B69C0
:103888001B013A6913433B613B689B691B013A6919
:1038980013433B617B683A695A607B68FA68DA616E
:1038A8003B685A687B68DA637B687A691A6200BF8A
:1038B8001C37BD465DF8047B704700BF000001401F
:1038C8000004014080B487B000AF786039600023FD
:1038D8003B610023FB6000237B617B681B6A23F448
:1038E80080527B681A627B681B6AFB607B685B6836
:1038F8007B617B68DB693B613B6923F4E0433B61A7
:103908003B6923F440733B613B681B681B023A69BF
:1039180013433B61FB6823F40053FB603B689B68DF
:103928001B03FA681343FB607B68144A934203D075
:103938007B68134A934201D1012300E00023002B46
:1039480009D07B6923F480437B613B685B699B01F9
:103958007A6913437B617B687A695A607B683A6944
:10396800DA613B685A687B681A647B68FA681A628D
:1039780000BF1C37BD465DF8047B7047000001405E
:103988000004014080B582B000AF786039607B6880
:103998001B6804223968184600F0C7F87B681B6862
:1039A8007A681268526C42F400425A647B681B6859
:1039B8007A681268126842F001021A6000231846F9
:1039C8000837BD4680BD80B483B000AF78603960E9
:1039D8007B6893F83830012B01D1022332E07B68F1
:1039E800012283F838207B68022283F839207B681B
:1039F8001B687A681268526822F070025A607B6805
:103A08001B687A68126851683A6812680A435A60F3
:103A18007B681B687A681268926822F080029A6054
:103A28007B681B687A68126891683A6852680A432A
:103A38009A607B68012283F839207B68002283F82A
:103A48003820002318460C37BD465DF8047B7047C4
:103A580080B485B000AF786039600023FB607B6874
:103A680093F83830012B01D1022344E07B6801220E
:103A780083F83820FB6823F0FF023B68DB681343B8
:103A8800FB60FB6823F440723B689B681343FB6050
:103A9800FB6823F480623B685B681343FB60FB6848
:103AA80023F400623B681B681343FB60FB6823F444
:103AB80080523B681B691343FB60FB6823F4005288
:103AC8003B685B691343FB60FB6823F480423B68F7
:103AD8009B691343FB60FB6823F400423B689B69C6
:103AE8001343FB607B681B68FA685A647B68002292
:103AF80083F83820002318461437BD465DF8047B48
:103B0800704780B483B000AF786000BF0C37BD4603
:103B18005DF8047B704780B483B000AF786000BF65
:103B28000C37BD465DF8047B704780B487B000AFA2
:103B3800F860B9607A6000237B610422BB6802FAEE
:103B480003F37B61FB681A6A7B69DB431A40FB68F5
:103B58001A62FB681A6A7968BB6801FA03F31A43A8
:103B6800FB681A6200BF1C37BD465DF8047B7047CE
:103B780070B50D4E0D4CA41BA4100025A54209D10B
:103B88000B4E0C4C00F040FDA41BA4100025A542D0
:103B980005D170BD56F8253098470135EEE756F83F
:103BA800253098470135F2E7244A0008244A0008DE
:103BB800244A0008284A000810EE103A07B51D4AA2
:103BC80023F00043934205DCDFED1B0A002000F0E0
:103BD8001DFC04E0B3F1FF4F04DB30EE400A03B0F4
:103BE8005DF804FB684600F029F800F0030001289E
:103BF80008D002280DD0B0B90120DDED010A9DEDF5
:103C0800000AE4E7DDED010A9DED000A00F042F943
:103C1800E5E70120DDED010A9DED000A00F0F6FB65
:103C2800B1EE400ADBE7DDED010A9DED000A00F088
:103C380031F9F5E7D80F493F00000000F0B510EE64
:103C4800106A864B26F000449C4287B0054605DC86
:103C5800002385ED000A4360002020E0804B9C4251
:103C680038DC002E9FED7F7A7F4B24F00F0418DD9F
:103C78009C4270EE477A09BF9FED7C7A9FED7C7A73
:103C880077EEC77A9FED7B7A77EEC76A77EEE67AAA
:103C9800C0ED006A77EEC77AC0ED017A012007B05F
:103CA800F0BD9C4270EE077A09BF9FED707A9FEDD8
:103CB800707A77EE877A9FED6F7A77EE876A77EE7C
:103CC800E67AC0ED006A77EE877AC0ED017A4FF0A8
:103CD800FF30E4E7684B9C4271DC00F0DFFB9FEDAE
:103CE800677AF6EE007AE0EE077AFDEEE77AB8EE4C
:103CF800E76A17EE900ADFED5B7AB1EE467AA7EE37
:103D0800270A1F28DFED5A7A66EE277A70EE676A6F
:103D180016EE903A1CDC471E594951F8271024F03A
:103D2800FF028A4214D02B6095ED007A30EE470AE4
:103D3800002E30EE670A85ED010AB0DAB1EE477A57
:103D4800B1EE400A85ED007A85ED010A4042A6E70A
:103D5800E415C3F3C752A21A082AE4DDDFED437A5B
:103D6800F0EE406AE7EE276A30EE660AA7EE270A09
:103D7800DFED407A96EE270A76EEC05AF0EE407AEA
:103D880015EE903AC3F3C752A41A192C04DCC5EDFA
:103D9800005AB0EE660AC7E7DFED3A5AB0EE660A97
:103DA800A7EE250A76EEC07AE7EE257A9FED367AF9
:103DB800D6EE077A30EE677A85ED007AB4E7B4F18B
:103DC800FF4F06DB70EE407AC0ED017AC0ED007A55
:103DD80042E7E215863AA4EBC25307EE903ABDEEED
:103DE800E77ADFED2A6AB8EEC77A77EEC77A8DED03
:103DF800037A67EEA67ABDEEE77AB8EEC77A77EE71
:103E0800C77A8DED047A67EEA67AF5EE407AF1EE80
:103E180010FACDED057A1ED1B5EE407AF1EE10FA22
:103E280014BF022301231A4901910221009103A81A
:103E3800294600F08DF8002EBFF631AFD5ED007A97
:103E4800F1EE677AC5ED007AD5ED017AF1EE677A81
:103E5800C5ED017A7AE70323E5E700BFD80F493FAC
:103E6800E3CB1640800FC93FD00FC93F0044353718
:103E78004344353708A3852E800F494384F9223FF0
:103E88004C46000800A3852E32318D240000804363
:103E9800CC46000810EE103A23F00043B3F1485F17
:103EA800F7EE006A05DAFDEEC07A17EE902A002ACE
:103EB8003BD020EE007A9FED1E6ADFED1E7ADFED23
:103EC8001E5A1E4AA7EE276A934260EE200AE7EEC2
:103ED800065A9FED1B6AA7EE256ADFED1A5AE7EE30
:103EE800065A9FED196AA7EE256AF6EE005A26EEE5
:103EF800076A06DCD7EE060AD7EE250A36EEE00A90
:103F08007047124A9342DABF03F17F4307EE903AB3
:103F1800F5EE027A76EEE76AD7EE060AD7EE257A4C
:103F280077EEE07A36EEE70A7047B0EE660A704739
:103F3800F6740F314ED747AD7CF293B49999993EF8
:103F4800010DD037610BB6BAABAA2A3D0000483F35
:103F58002DE9F04F2DED048BD7B08B460193649972
:103F6800CB4B029053F821A0019B659E9FEDCC7A24
:103F7800013BD01E082490FBF4F020EAE070451CB9
:103F8800C71AA2EBC5050AEB030E1AAC06EB870CA1
:103F9800002272450FDD0DF5847E0024544526DC91
:103FA800019A029FDFEDBE7A22441AA901EB820230
:103FB8004FF0000C15E0D7425DBF5CF8221007EE09
:103FC800901AF8EEE77AF0EE477AE4EC017A0132DB
:103FD800DFE7F7EC016A32ED017AE6EE877A0CF159
:103FE800010C9C45F5DDEEEC017A0134D6E706AA12
:103FF80002EB8A020492DFEDA78A9FEDA79A06EBEF
:1040080080020392574656AA07F1804802EB8702BE
:1040180008F1FF3812ED140A4FEA880856AA02EB95
:1040280008004C380022BC1A002C4ADC28460593AC
:1040380000F07EFAB0EE408AB4EE000A28EE000ADC
:1040480000F034FAF2EE007AA0EE678A002D059BA4
:10405800FDEEC87A17EE909AF8EEE77A38EE678A9E
:1040680044DD781E06AAC5F1080452F8206046FA15
:1040780004F29144A240B61A06AA42F82060C5F19B
:1040880007021641002E40DD002409F101092046EF
:10409800A74275DC002D05DD012D00F08680022D7C
:1040A80000F08D80022E30D1B7EE000A30EE488A3B
:1040B80058B32846059300F03BFA059B38EE408A32
:1040C80023E060EE287A06ACFDEEE77AF8EEE77AB0
:1040D800A7EEC90ABDEEC00A10EE101A30ED010AAB
:1040E80044F8221037EE800A01329CE705D17A1E87
:1040F80006A951F822603612C4E7F6EE007AB4EE4B
:10410800E78AF1EE10FA39DA0026B5EE408AF1EEC8
:1041180010FA40F08D807C1E20460022504555DA6A
:10412800002A64D101246FF0030000FB04F2049913
:104138008A58002A50D056AA9044019A1AA93A449B
:10414800781CA8F1480801EB82022744B8423FF7DF
:104158005AAF0399029E51F82010059107EE901A64
:10416800F8EEE77A0024E2EC017ADFED4D7A964624
:104178009C4233DDE8EC017A0130E7E7022683E769
:1041880006AA52F8242048B92AB106A9C2F58072B5
:1041980041F8242001220134104679E706A9C2F12A
:1041A800FF0241F824200246F5E77C1E06AA52F8D1
:1041B800242002F07F0206A941F8242072E77C1E21
:1041C80006AA52F8242002F03F02F4E706A951F8A3
:1041D800201001380A43A1E70134A6E7F6EC016A8A
:1041E8003EED017A0134E6EE877AC1E7013C06AB81
:1041F800083D53F82430002BF8D02846B7EE000AC3
:1042080000F096F9A30042AA04339FED227AD01851
:104218002246002A46DA0DF1B80E0022A51A60D40B
:1042280042A91E4FDFED1E7A01EB8505002050E004
:104238006842B0EE480A00F07BF99FED177AB4EEB9
:10424800C70AF1EE10FA19DBDFED127A60EE277A71
:1042580006AAFDEEE77A7C1CF8EEE77A0835A7EEA9
:10426800C70AFDEEE77ABDEEC00A10EE103A42F832
:10427800273017EE903A42F82430BEE7BDEEC00A68
:1042880006AA10EE103A3C4642F82730B5E700BFC0
:10429800104A00080000803B00008043E449000801
:1042A8000000000006A951F82210019107EE901AAB
:1042B800F8EEE77A013A67EE807A20EE070A60EDB9
:1042C800017AA6E7F7EC016AB5EC017AE6EE877A9F
:1042D8000130504501DC9042F4DDEEEC017A013208
:1042E8009CE7649A032A43D8DFE802F0371D1D02D1
:1042F8002EAA13441A462046002855DC1A462046A2
:10430800012861DC5FED1A7A012C6DDCDDED2E6A87
:104318009DED2F7A002E6DD1CBED006A8BED017AE1
:10432800CBED027A24E02EAA1FED237A134422460D
:10433800002A2ADA7EB3F1EE477ACBED007ADDED7A
:104348002E7A77EEC77A2FAA01239C4226DA0EB17D
:10435800F1EE677ACBED017A0AE02EAA5FED307AAA
:104368001344002C0BDA0EB1F1EE677ACBED007A2C
:1043780009F0070057B0BDEC048BBDE8F08F33EDB2
:10438800017A013C77EE877AEBE773ED017A013A1F
:1043980037EE277ACCE7F0EE477ACEE7B2EC017A2F
:1043A800013377EE877AD0E752ED016A52ED027A4F
:1043B80037EEA67A013877EEC77A77EEA67A62EDFD
:1043C800017A02ED017A97E752ED016A52ED027A1D
:1043D80037EEA67A013877EEC77A77EEA67A62EDDD
:1043E800017A02ED017A8BE733ED017A013C77EE31
:1043F800877A89E7F1EE666AB1EE477ACBED006A13
:104408008BED017AF1EE677A8AE700BF10EE103A79
:1044180023F00043B3F1485F04DAFDEEC07A17EEEB
:10442800903A5BB320EE007ADFED157A9FED156ABE
:10443800A7EE276ADFED147AE7EE067A9FED136A96
:10444800A7EE276ADFED127A60EE076AE7EE067AD2
:1044580030B99FED106AA7EE276AA6EE860A704764
:1044680067EEE67AB6EE006AE0EE867AD7EE270ABD
:10447800DFED097AE6EEA70A30EE600A704700BF62
:10448800D3C92E2F342FD7B21BEF3836010D50B9B0
:104498008988083CABAA2ABEABAA2A3E10EE103A7D
:1044A80023F0004300EE103A7047000010EE103A77
:1044B80023F00041CA0D7F3A162A2ADC002A11DAB5
:1044C800DFED187A30EE270AB5EEC00AF1EE10FAE1
:1044D80005DD002B23DA144A002918BF134600EE25
:1044E800103A7047114911410B42FAD0DFED0D7AAD
:1044F80030EE270AB5EEC00AF1EE10FAEFDD002B18
:10450800BEBF4FF4000040FA02F29B1823EA0103F1
:10451800E5E7B1F1FF4FE4D330EE000A704700231E
:10452800DDE700BFCAF24971000080BFFFFF7F00CE
:1045380008B510EE102A32F000432DED028BF0EE94
:10454800400A04D0B3F1FF4F06D370EE000ABDEC69
:10455800028BB0EE600A08BDB3F5000F1CD21F4BEA
:10456800DFED1F7A984260EE270A10DB10EE902AE2
:10457800C2F3C753193B0344FE2B0FDD9FED198A85
:10458800B0EE480A00F034F860EE080ADFE7DFED25
:10459800167A60EEA70ADAE7DB0DECE7002B06DDFA
:1045A80022F0FF4242EAC35300EE903ACFE713F1FC
:1045B800160F06DA4CF250339842DFDC9FED0A8A78
:1045C800DEE7193322F0FF4242EAC353DFED077AF0
:1045D80007EE103A67EE270AB9E700BFB03CFFFFC5
:1045E8000000004CCAF249716042A20D000000337D
:1045F80010EE103A10EE902A23F0004302F0004229
:10460800134300EE103A7047F8B500BFF8BC08BC79
:104618009E467047F8B500BFF8BC08BC9E46704778
:104628002E2E5C2E2E5C2E2E5C5372635C6D61699F
:104638006E2E630000000000000000000102030469
:1046480006070809000FC93F000F494000CB9640F4
:10465800000FC9400053FB4000CB164100ED2F412D
:10466800000F49410031624100537B41003A8A41C1
:1046780000CB9641005CA34100EDAF41007EBC41F8
:10468800000FC94100A0D5410031E24100C2EE410E
:104698000053FB4100F20342003A0A4200831042F1
:1046A80000CB164200141D42005C234200A529429B
:1046B80000ED2F4200363642007E3C4200C742429F
:1046C800000F4942A2000000F9000000830000002A
:1046D8006E0000004E0000004400000015000000BD
:1046E80029000000FC00000027000000570000001F
:1046F800D1000000F500000034000000DD000000DB
:10470800C0000000DB00000062000000950000000F
:10471800990000003C0000004300000090000000E9
:1047280041000000FE00000051000000630000008E
:10473800AB000000DE000000BB000000C500000068
:1047480061000000B7000000240000006E000000B7
:104758003A000000420000004D000000D2000000B6
:10476800E000000006000000490000002E000000E4
:10477800EA00000009000000D100000092000000DB
:104788001C000000FE0000001D000000EB000000FF
:104798001C000000B100000029000000A700000074
:1047A8003E000000E8000000820000003500000024
:1047B800F50000002E000000BB00000044000000CF
:1047C80084000000E90000009C0000007000000068
:1047D80026000000B40000005F0000007E0000001A
:1047E800410000003900000091000000D6000000E0
:1047F8003900000083000000530000003900000069
:10480800F40000009C000000840000005F0000002D
:104818008B000000BD000000F90000002800000027
:104828003B0000001F000000F80000009700000097
:10483800FF000000DE0000000500000098000000F6
:104848000F000000EF0000002F0000001100000022
:104858008B0000005A0000000A0000006D000000F4
:104868001F0000006D000000360000007E00000000
:10487800CF00000027000000CB0000000900000066
:10488800B70000004F000000460000003F00000095
:10489800660000009E0000005F000000EA000000C3
:1048A8002D0000007500000027000000BA0000007D
:1048B800C7000000EB000000E5000000F100000068
:1048C8007B0000003D0000000700000039000000E8
:1048D800F70000008A00000052000000920000006B
:1048E800EA0000006B000000FB0000005F00000011
:1048F800B10000001F0000008D0000005D000000F6
:10490800080000005600000003000000300000000E
:1049180046000000FC0000007B0000006B00000067
:10492800AB000000F0000000CF000000BC00000059
:10493800200000009A000000F4000000360000008B
:104948001D000000A9000000E30000009100000025
:10495800610000005E000000E60000001B0000008F
:1049680008000000650000009900000085000000B4
:104978005F00000014000000A000000068000000B4
:10498800400000008D000000FF000000D80000007B
:10499800800000004D0000007300000027000000A8
:1049A80031000000060000000600000015000000AD
:1049B80056000000CA00000073000000A8000000B4
:1049C800C900000060000000E20000007B00000059
:1049D800C00000008C0000006B0000000000C93F10
:1049E8000000F0390000DA370000A2330000842EFE
:1049F8000000502B0000C2270000D0220000C41F76
:104A08000000C61B00004417040000000700000057
:044A18000900000091
:084A1C0050C0FF7F0100000003
:044A2400AD010008D8
:044A280089010008F8
:104A2C000000C84117B7D1380000003FFDEA063C32
:0C4A3C000000484300007A430024F4000E
:0400000508000D4D95
:00000001FF
